{
  "contractName": "charity",
  "abi": [
    {
      "inputs": [],
      "stateMutability": "nonpayable",
      "type": "constructor"
    },
    {
      "inputs": [
        {
          "internalType": "uint256",
          "name": "",
          "type": "uint256"
        }
      ],
      "name": "Blockchain",
      "outputs": [
        {
          "internalType": "uint256",
          "name": "nonce",
          "type": "uint256"
        },
        {
          "internalType": "bytes",
          "name": "data",
          "type": "bytes"
        },
        {
          "internalType": "bytes32",
          "name": "transaction_hash_add",
          "type": "bytes32"
        },
        {
          "internalType": "uint256",
          "name": "blockNumber",
          "type": "uint256"
        },
        {
          "internalType": "bytes32",
          "name": "hash",
          "type": "bytes32"
        },
        {
          "internalType": "bytes32",
          "name": "previous_hash",
          "type": "bytes32"
        }
      ],
      "stateMutability": "view",
      "type": "function",
      "constant": true
    },
    {
      "inputs": [],
      "name": "blockchain_count",
      "outputs": [
        {
          "internalType": "uint256",
          "name": "",
          "type": "uint256"
        }
      ],
      "stateMutability": "view",
      "type": "function",
      "constant": true
    },
    {
      "inputs": [],
      "name": "charity_count",
      "outputs": [
        {
          "internalType": "uint256",
          "name": "",
          "type": "uint256"
        }
      ],
      "stateMutability": "view",
      "type": "function",
      "constant": true
    },
    {
      "inputs": [
        {
          "internalType": "uint256",
          "name": "",
          "type": "uint256"
        }
      ],
      "name": "charitys",
      "outputs": [
        {
          "internalType": "string",
          "name": "name",
          "type": "string"
        },
        {
          "internalType": "string",
          "name": "description",
          "type": "string"
        },
        {
          "internalType": "string",
          "name": "bankAccount",
          "type": "string"
        },
        {
          "internalType": "string",
          "name": "bankName",
          "type": "string"
        },
        {
          "internalType": "uint256",
          "name": "id",
          "type": "uint256"
        },
        {
          "internalType": "bytes32",
          "name": "hash",
          "type": "bytes32"
        },
        {
          "internalType": "string",
          "name": "address_of_charity",
          "type": "string"
        },
        {
          "internalType": "string",
          "name": "ether_coins",
          "type": "string"
        }
      ],
      "stateMutability": "view",
      "type": "function",
      "constant": true
    },
    {
      "inputs": [
        {
          "internalType": "uint256",
          "name": "",
          "type": "uint256"
        }
      ],
      "name": "org",
      "outputs": [
        {
          "internalType": "string",
          "name": "name",
          "type": "string"
        },
        {
          "internalType": "string",
          "name": "bankAccount",
          "type": "string"
        },
        {
          "internalType": "string",
          "name": "bankName",
          "type": "string"
        },
        {
          "internalType": "uint256",
          "name": "id",
          "type": "uint256"
        },
        {
          "internalType": "bytes32",
          "name": "hash",
          "type": "bytes32"
        },
        {
          "internalType": "string",
          "name": "address_of_organisation",
          "type": "string"
        },
        {
          "internalType": "string",
          "name": "ether_coins",
          "type": "string"
        }
      ],
      "stateMutability": "view",
      "type": "function",
      "constant": true
    },
    {
      "inputs": [],
      "name": "org_count",
      "outputs": [
        {
          "internalType": "uint256",
          "name": "",
          "type": "uint256"
        }
      ],
      "stateMutability": "view",
      "type": "function",
      "constant": true
    },
    {
      "inputs": [],
      "name": "transaction_count",
      "outputs": [
        {
          "internalType": "uint256",
          "name": "",
          "type": "uint256"
        }
      ],
      "stateMutability": "view",
      "type": "function",
      "constant": true
    },
    {
      "inputs": [
        {
          "internalType": "uint256",
          "name": "",
          "type": "uint256"
        }
      ],
      "name": "transaction_dict",
      "outputs": [
        {
          "internalType": "string",
          "name": "address_of_charity",
          "type": "string"
        },
        {
          "internalType": "string",
          "name": "address_of_organisation",
          "type": "string"
        },
        {
          "internalType": "string",
          "name": "amount_sent",
          "type": "string"
        },
        {
          "internalType": "uint256",
          "name": "id",
          "type": "uint256"
        },
        {
          "internalType": "bytes32",
          "name": "transaction_hash",
          "type": "bytes32"
        }
      ],
      "stateMutability": "view",
      "type": "function",
      "constant": true
    },
    {
      "inputs": [
        {
          "internalType": "string",
          "name": "_name",
          "type": "string"
        },
        {
          "internalType": "string",
          "name": "_description",
          "type": "string"
        },
        {
          "internalType": "string",
          "name": "_bankacc",
          "type": "string"
        },
        {
          "internalType": "string",
          "name": "_bankname",
          "type": "string"
        },
        {
          "internalType": "string",
          "name": "_address",
          "type": "string"
        },
        {
          "internalType": "string",
          "name": "_ether_coins",
          "type": "string"
        }
      ],
      "name": "createCharity",
      "outputs": [
        {
          "internalType": "uint256",
          "name": "",
          "type": "uint256"
        }
      ],
      "stateMutability": "nonpayable",
      "type": "function"
    },
    {
      "inputs": [
        {
          "internalType": "string",
          "name": "_name",
          "type": "string"
        },
        {
          "internalType": "string",
          "name": "_bankacc",
          "type": "string"
        },
        {
          "internalType": "string",
          "name": "_bankname",
          "type": "string"
        },
        {
          "internalType": "string",
          "name": "_address",
          "type": "string"
        },
        {
          "internalType": "string",
          "name": "_ether_coins",
          "type": "string"
        }
      ],
      "name": "createOrganisation",
      "outputs": [
        {
          "internalType": "uint256",
          "name": "",
          "type": "uint256"
        }
      ],
      "stateMutability": "nonpayable",
      "type": "function"
    },
    {
      "inputs": [
        {
          "internalType": "string",
          "name": "add_of_charity",
          "type": "string"
        },
        {
          "internalType": "string",
          "name": "add_of_org",
          "type": "string"
        },
        {
          "internalType": "string",
          "name": "amount",
          "type": "string"
        }
      ],
      "name": "createTransaction",
      "outputs": [],
      "stateMutability": "nonpayable",
      "type": "function"
    },
    {
      "inputs": [],
      "name": "blockchain_function",
      "outputs": [],
      "stateMutability": "nonpayable",
      "type": "function"
    }
  ],
  "bytecode": "0x6080604052600080556000600155600060045560006006553480156200002457600080fd5b50620000e56040518060400160405280600d81526020016c616e616e645f6368617269747960981b81525060405180608001604052806050815260200162005b95605091396040518060400160405280600781526020016662616e6b61636360c81b8152506040518060400160405280600881526020016762616e6b6e616d6560c01b8152506040518060600160405280602a815260200162005c0f602a91396040805180820190915260048152630303030360e41b6020820152620001fe565b50620001976040518060400160405280601281526020017130b730b7322fb7b933b0b734b9b0ba34b7b760711b8152506040518060400160405280600c81526020016b18985b9ac81858d8dbdd5b9d60a21b8152506040518060400160405280600981526020016862616e6b206e616d6560b81b8152506040518060600160405280602a815260200162005c0f602a91396040805180820190915260048152630303030360e41b602082015262000628565b50620001ee6040518060600160405280602a815260200162005b6b602a91396040518060600160405280602a815260200162005be5602a91396040805180820190915260018152603160f81b602082015262000997565b620001f862000c32565b6200281c565b6000805481806200020f836200265d565b909155505082518451865188518a518b948b948b948b948b94600094939291620002399162002679565b62000245919062002679565b62000251919062002679565b6200025d919062002679565b6001600160401b0381111562000277576200027762002695565b6040519080825280601f01601f191660200182016040528015620002a2576020820181803683370190505b509050806000805b88518110156200032557888181518110620002c957620002c9620026ab565b602001015160f81c60f81b838381518110620002e957620002e9620026ab565b60200101906001600160f81b031916908160001a905350816200030c816200265d565b92505080806200031c906200265d565b915050620002aa565b5060005b8751811015620003a457878181518110620003485762000348620026ab565b602001015160f81c60f81b838381518110620003685762000368620026ab565b60200101906001600160f81b031916908160001a905350816200038b816200265d565b92505080806200039b906200265d565b91505062000329565b5060005b86518110156200042357868181518110620003c757620003c7620026ab565b602001015160f81c60f81b838381518110620003e757620003e7620026ab565b60200101906001600160f81b031916908160001a905350816200040a816200265d565b92505080806200041a906200265d565b915050620003a8565b5060005b8551811015620004a257858181518110620004465762000446620026ab565b602001015160f81c60f81b838381518110620004665762000466620026ab565b60200101906001600160f81b031916908160001a9053508162000489816200265d565b925050808062000499906200265d565b91505062000427565b5060005b84518110156200052157848181518110620004c557620004c5620026ab565b602001015160f81c60f81b838381518110620004e557620004e5620026ab565b60200101906001600160f81b031916908160001a9053508162000508816200265d565b925050808062000518906200265d565b915050620004a6565b506000828051906020012090508f6002600080548152602001908152602001600020600001908162000554919062002750565b508e600260008054815260200190815260200160002060010190816200057b919062002750565b50600080548152600260208190526040909120016200059b8f8262002750565b50600080548152600260205260409020600301620005ba8e8262002750565b50600080548082526002602052604080832060048101929092556005909101839055815482529020600601620005f18d8262002750565b50600080548152600260205260409020600701620006108c8262002750565b50506000549f9e505050505050505050505050505050565b60018054600091826200063b836200265d565b9091555050825184518651885189938993899389936000939291620006609162002679565b6200066c919062002679565b62000678919062002679565b6001600160401b0381111562000692576200069262002695565b6040519080825280601f01601f191660200182016040528015620006bd576020820181803683370190505b509050806000805b87518110156200074057878181518110620006e457620006e4620026ab565b602001015160f81c60f81b838381518110620007045762000704620026ab565b60200101906001600160f81b031916908160001a9053508162000727816200265d565b925050808062000737906200265d565b915050620006c5565b5060005b8651811015620007bf57868181518110620007635762000763620026ab565b602001015160f81c60f81b838381518110620007835762000783620026ab565b60200101906001600160f81b031916908160001a90535081620007a6816200265d565b9250508080620007b6906200265d565b91505062000744565b5060005b85518110156200083e57858181518110620007e257620007e2620026ab565b602001015160f81c60f81b838381518110620008025762000802620026ab565b60200101906001600160f81b031916908160001a9053508162000825816200265d565b925050808062000835906200265d565b915050620007c3565b5060005b8451811015620008bd57848181518110620008615762000861620026ab565b602001015160f81c60f81b838381518110620008815762000881620026ab565b60200101906001600160f81b031916908160001a90535081620008a4816200265d565b9250508080620008b4906200265d565b91505062000842565b508151602080840191909120600154600090815260039092526040909120620008e78f8262002750565b5060018054600090815260036020526040902001620009078e8262002750565b506001546000908152600360205260409020600201620009288d8262002750565b5060018054600081815260036020819052604080832091820193909355600401849055915482529020600501620009608c8262002750565b506001546000908152600360205260409020600601620009818b8262002750565b50506001549d9c50505050505050505050505050565b60048054906000620009a9836200265d565b909155505080518251845185928592859260009291620009c99162002679565b620009d5919062002679565b6001600160401b03811115620009ef57620009ef62002695565b6040519080825280601f01601f19166020018201604052801562000a1a576020820181803683370190505b509050806000805b865181101562000a9e5786818151811062000a415762000a41620026ab565b01602001516001600160f81b031916838362000a5d816200265d565b94508151811062000a725762000a72620026ab565b60200101906001600160f81b031916908160001a9053508062000a95816200265d565b91505062000a22565b5060005b855181101562000b1e5785818151811062000ac15762000ac1620026ab565b01602001516001600160f81b031916838362000add816200265d565b94508151811062000af25762000af2620026ab565b60200101906001600160f81b031916908160001a9053508062000b15816200265d565b91505062000aa2565b5060005b845181101562000b9e5784818151811062000b415762000b41620026ab565b01602001516001600160f81b031916838362000b5d816200265d565b94508151811062000b725762000b72620026ab565b60200101906001600160f81b031916908160001a9053508062000b95816200265d565b91505062000b22565b50815160208084019190912060045460009081526005909252604090912062000bc88b8262002750565b50600454600090815260056020526040902060010162000be98a8262002750565b50600454600090815260056020526040902060020162000c0a898262002750565b5060048054600081815260056020526040902060038101919091550155505050505050505050565b6006805490600062000c44836200265d565b909155506000905060015b6000548111620010c3576000818152600260205260408120805462000c7490620026c1565b80601f016020809104026020016040519081016040528092919081815260200182805462000ca290620026c1565b801562000cf35780601f1062000cc75761010080835404028352916020019162000cf3565b820191906000526020600020905b81548152906001019060200180831162000cd557829003601f168201915b50505050509050600060026000848152602001908152602001600020600101805462000d1f90620026c1565b80601f016020809104026020016040519081016040528092919081815260200182805462000d4d90620026c1565b801562000d9e5780601f1062000d725761010080835404028352916020019162000d9e565b820191906000526020600020905b81548152906001019060200180831162000d8057829003601f168201915b50505050509050600060026000858152602001908152602001600020600201805462000dca90620026c1565b80601f016020809104026020016040519081016040528092919081815260200182805462000df890620026c1565b801562000e495780601f1062000e1d5761010080835404028352916020019162000e49565b820191906000526020600020905b81548152906001019060200180831162000e2b57829003601f168201915b50505050509050600060026000868152602001908152602001600020600301805462000e7590620026c1565b80601f016020809104026020016040519081016040528092919081815260200182805462000ea390620026c1565b801562000ef45780601f1062000ec85761010080835404028352916020019162000ef4565b820191906000526020600020905b81548152906001019060200180831162000ed657829003601f168201915b50505050509050600060026000878152602001908152602001600020600601805462000f2090620026c1565b80601f016020809104026020016040519081016040528092919081815260200182805462000f4e90620026c1565b801562000f9f5780601f1062000f735761010080835404028352916020019162000f9f565b820191906000526020600020905b81548152906001019060200180831162000f8157829003601f168201915b50505050509050600060026000888152602001908152602001600020600701805462000fcb90620026c1565b80601f016020809104026020016040519081016040528092919081815260200182805462000ff990620026c1565b80156200104a5780601f106200101e576101008083540402835291602001916200104a565b820191906000526020600020905b8154815290600101906020018083116200102c57829003601f168201915b50505050509050805182518451865188518a5162001069919062002679565b62001075919062002679565b62001081919062002679565b6200108d919062002679565b62001099919062002679565b620010a5908962002679565b97505050505050508080620010ba906200265d565b91505062000c4f565b5060015b6001548111620014815760008181526003602052604081208054620010ec90620026c1565b80601f01602080910402602001604051908101604052809291908181526020018280546200111a90620026c1565b80156200116b5780601f106200113f576101008083540402835291602001916200116b565b820191906000526020600020905b8154815290600101906020018083116200114d57829003601f168201915b5050505050905060006003600084815260200190815260200160002060010180546200119790620026c1565b80601f0160208091040260200160405190810160405280929190818152602001828054620011c590620026c1565b8015620012165780601f10620011ea5761010080835404028352916020019162001216565b820191906000526020600020905b815481529060010190602001808311620011f857829003601f168201915b5050505050905060006003600085815260200190815260200160002060020180546200124290620026c1565b80601f01602080910402602001604051908101604052809291908181526020018280546200127090620026c1565b8015620012c15780601f106200129557610100808354040283529160200191620012c1565b820191906000526020600020905b815481529060010190602001808311620012a357829003601f168201915b505050505090506000600360008681526020019081526020016000206005018054620012ed90620026c1565b80601f01602080910402602001604051908101604052809291908181526020018280546200131b90620026c1565b80156200136c5780601f1062001340576101008083540402835291602001916200136c565b820191906000526020600020905b8154815290600101906020018083116200134e57829003601f168201915b5050505050905060006003600087815260200190815260200160002060060180546200139890620026c1565b80601f0160208091040260200160405190810160405280929190818152602001828054620013c690620026c1565b8015620014175780601f10620013eb5761010080835404028352916020019162001417565b820191906000526020600020905b815481529060010190602001808311620013f957829003601f168201915b505050505090508051825184518651885162001434919062002679565b62001440919062002679565b6200144c919062002679565b62001458919062002679565b62001464908862002679565b96505050505050808062001478906200265d565b915050620010c7565b506000816001600160401b038111156200149f576200149f62002695565b6040519080825280601f01601f191660200182016040528015620014ca576020820181803683370190505b509050600081818060015b600054811162001bd05760008181526002602052604081208054620014fa90620026c1565b80601f01602080910402602001604051908101604052809291908181526020018280546200152890620026c1565b8015620015795780601f106200154d5761010080835404028352916020019162001579565b820191906000526020600020905b8154815290600101906020018083116200155b57829003601f168201915b5050505050905060005b8151811015620015ff57818181518110620015a257620015a2620026ab565b01602001516001600160f81b0319168685620015be816200265d565b965081518110620015d357620015d3620026ab565b60200101906001600160f81b031916908160001a90535080620015f6816200265d565b91505062001583565b50600082815260026020526040812060010180546200161e90620026c1565b80601f01602080910402602001604051908101604052809291908181526020018280546200164c90620026c1565b80156200169d5780601f1062001671576101008083540402835291602001916200169d565b820191906000526020600020905b8154815290600101906020018083116200167f57829003601f168201915b5050505050905060005b81518110156200172357818181518110620016c657620016c6620026ab565b01602001516001600160f81b0319168786620016e2816200265d565b975081518110620016f757620016f7620026ab565b60200101906001600160f81b031916908160001a905350806200171a816200265d565b915050620016a7565b50600083815260026020819052604082200180546200174290620026c1565b80601f01602080910402602001604051908101604052809291908181526020018280546200177090620026c1565b8015620017c15780601f106200179557610100808354040283529160200191620017c1565b820191906000526020600020905b815481529060010190602001808311620017a357829003601f168201915b5050505050905060005b81518110156200184757818181518110620017ea57620017ea620026ab565b01602001516001600160f81b031916888762001806816200265d565b9850815181106200181b576200181b620026ab565b60200101906001600160f81b031916908160001a905350806200183e816200265d565b915050620017cb565b50600084815260026020526040812060030180546200186690620026c1565b80601f01602080910402602001604051908101604052809291908181526020018280546200189490620026c1565b8015620018e55780601f10620018b957610100808354040283529160200191620018e5565b820191906000526020600020905b815481529060010190602001808311620018c757829003601f168201915b5050505050905060005b81518110156200196b578181815181106200190e576200190e620026ab565b01602001516001600160f81b03191689886200192a816200265d565b9950815181106200193f576200193f620026ab565b60200101906001600160f81b031916908160001a9053508062001962816200265d565b915050620018ef565b50600085815260026020526040812060060180546200198a90620026c1565b80601f0160208091040260200160405190810160405280929190818152602001828054620019b890620026c1565b801562001a095780601f10620019dd5761010080835404028352916020019162001a09565b820191906000526020600020905b815481529060010190602001808311620019eb57829003601f168201915b5050505050905060005b815181101562001a8f5781818151811062001a325762001a32620026ab565b01602001516001600160f81b0319168a8962001a4e816200265d565b9a508151811062001a635762001a63620026ab565b60200101906001600160f81b031916908160001a9053508062001a86816200265d565b91505062001a13565b506000868152600260205260408120600701805462001aae90620026c1565b80601f016020809104026020016040519081016040528092919081815260200182805462001adc90620026c1565b801562001b2d5780601f1062001b015761010080835404028352916020019162001b2d565b820191906000526020600020905b81548152906001019060200180831162001b0f57829003601f168201915b5050505050905060005b815181101562001bb35781818151811062001b565762001b56620026ab565b01602001516001600160f81b0319168b8a62001b72816200265d565b9b508151811062001b875762001b87620026ab565b60200101906001600160f81b031916908160001a9053508062001baa816200265d565b91505062001b37565b50505050505050808062001bc7906200265d565b915050620014d5565b5060015b6001548111620021aa576000818152600360205260408120805462001bf990620026c1565b80601f016020809104026020016040519081016040528092919081815260200182805462001c2790620026c1565b801562001c785780601f1062001c4c5761010080835404028352916020019162001c78565b820191906000526020600020905b81548152906001019060200180831162001c5a57829003601f168201915b5050505050905060005b815181101562001cfe5781818151811062001ca15762001ca1620026ab565b01602001516001600160f81b031916868562001cbd816200265d565b96508151811062001cd25762001cd2620026ab565b60200101906001600160f81b031916908160001a9053508062001cf5816200265d565b91505062001c82565b506000828152600360205260408120600101805462001d1d90620026c1565b80601f016020809104026020016040519081016040528092919081815260200182805462001d4b90620026c1565b801562001d9c5780601f1062001d705761010080835404028352916020019162001d9c565b820191906000526020600020905b81548152906001019060200180831162001d7e57829003601f168201915b5050505050905060005b815181101562001e225781818151811062001dc55762001dc5620026ab565b01602001516001600160f81b031916878662001de1816200265d565b97508151811062001df65762001df6620026ab565b60200101906001600160f81b031916908160001a9053508062001e19816200265d565b91505062001da6565b506000838152600360205260408120600201805462001e4190620026c1565b80601f016020809104026020016040519081016040528092919081815260200182805462001e6f90620026c1565b801562001ec05780601f1062001e945761010080835404028352916020019162001ec0565b820191906000526020600020905b81548152906001019060200180831162001ea257829003601f168201915b5050505050905060005b815181101562001f465781818151811062001ee95762001ee9620026ab565b01602001516001600160f81b031916888762001f05816200265d565b98508151811062001f1a5762001f1a620026ab565b60200101906001600160f81b031916908160001a9053508062001f3d816200265d565b91505062001eca565b506000848152600360205260408120600501805462001f6590620026c1565b80601f016020809104026020016040519081016040528092919081815260200182805462001f9390620026c1565b801562001fe45780601f1062001fb85761010080835404028352916020019162001fe4565b820191906000526020600020905b81548152906001019060200180831162001fc657829003601f168201915b5050505050905060005b81518110156200206a578181815181106200200d576200200d620026ab565b01602001516001600160f81b031916898862002029816200265d565b9950815181106200203e576200203e620026ab565b60200101906001600160f81b031916908160001a9053508062002061816200265d565b91505062001fee565b50600085815260036020526040812060060180546200208990620026c1565b80601f0160208091040260200160405190810160405280929190818152602001828054620020b790620026c1565b8015620021085780601f10620020dc5761010080835404028352916020019162002108565b820191906000526020600020905b815481529060010190602001808311620020ea57829003601f168201915b5050505050905060005b81518110156200218e57818181518110620021315762002131620026ab565b01602001516001600160f81b0319168a896200214d816200265d565b9a5081518110620021625762002162620026ab565b60200101906001600160f81b031916908160001a9053508062002185816200265d565b91505062002112565b5050505050508080620021a1906200265d565b91505062001bd4565b50600060608060015b60045481116200228f5760045481036200220c576000818152600560209081526040918290206004015482519182015201604051602081830303815290604052925082518462002204919062002679565b93506200227a565b60006200221b82600162002679565b600083815260056020908152604080832060049081015485855293829020015490519394506200225693909101918252602082015260400190565b604051602081830303815290604052925082518562002276919062002679565b9450505b8062002286816200265d565b915050620021b3565b506000836001600160401b03811115620022ad57620022ad62002695565b6040519080825280601f01601f191660200182016040528015620022d8576020820181803683370190505b50905080600060015b6004548111620024aa576004548103620023a9576000818152600560209081526040918290206004015482519182015201604051602081830303815290604052955060005b8651811015620023a257868181518110620023455762002345620026ab565b01602001516001600160f81b031916848462002361816200265d565b955081518110620023765762002376620026ab565b60200101906001600160f81b031916908160001a9053508062002399816200265d565b91505062002326565b5062002495565b6000620023b882600162002679565b60008381526005602090815260408083206004908101548585529382902001549051939450620023f393909101918252602082015260400190565b604051602081830303815290604052955060005b86518110156200248357868181518110620024265762002426620026ab565b01602001516001600160f81b031916858562002442816200265d565b965081518110620024575762002457620026ab565b60200101906001600160f81b031916908160001a905350806200247a816200265d565b91505062002407565b508162002490816200265d565b925050505b80620024a1816200265d565b915050620022e1565b508151602083012089516000906001600160401b03811115620024d157620024d162002695565b6040519080825280601f01601f191660200182016040528015620024fc576020820181803683370190505b509050806000805b8d5181101562002580578d8181518110620025235762002523620026ab565b01602001516001600160f81b03191683836200253f816200265d565b945081518110620025545762002554620026ab565b60200101906001600160f81b031916908160001a9053508062002577816200265d565b91505062002504565b50815160208084019190912060065460008181526007909352604090922060038101929092559c50600101620025b78e8262002750565b508b60076000600654815260200190815260200160002060040181905550600854600760006006548152602001908152602001600020600501819055508d6007600060065481526020019081526020016000206000018190555083600760006006548152602001908152602001600020600201819055508b60088190555050505050505050505050505050505050565b634e487b7160e01b600052601160045260246000fd5b60006001820162002672576200267262002647565b5060010190565b808201808211156200268f576200268f62002647565b92915050565b634e487b7160e01b600052604160045260246000fd5b634e487b7160e01b600052603260045260246000fd5b600181811c90821680620026d657607f821691505b602082108103620026f757634e487b7160e01b600052602260045260246000fd5b50919050565b601f8211156200274b57600081815260208120601f850160051c81016020861015620027265750805b601f850160051c820191505b81811015620027475782815560010162002732565b5050505b505050565b81516001600160401b038111156200276c576200276c62002695565b62002784816200277d8454620026c1565b84620026fd565b602080601f831160018114620027bc5760008415620027a35750858301515b600019600386901b1c1916600185901b17855562002747565b600085815260208120601f198616915b82811015620027ed57888601518255948401946001909101908401620027cc565b50858210156200280c5787850151600019600388901b60f8161c191681555b5050505050600190811b01905550565b61333f806200282c6000396000f3fe608060405234801561001057600080fd5b50600436106100b45760003560e01c8063acecc14911610071578063acecc14914610164578063b7483a1b1461016d578063cc11e16914610180578063d5e2c5e414610193578063f3e2236f146101b7578063f7ff50e2146101c057600080fd5b80630ae9d38e146100b957806317db127a146100d55780631c74915a146100ea5780636610f9cf146100f257806369e6601c146101195780636f05bbf41461013f575b600080fd5b6100c260065481565b6040519081526020015b60405180910390f35b6100e86100e3366004612d1a565b6101c9565b005b6100e8610431565b610105610100366004612da2565b611ca3565b6040516100cc989796959493929190612e01565b61012c610127366004612da2565b612013565b6040516100cc9796959493929190612e94565b61015261014d366004612da2565b6122f5565b6040516100cc96959493929190612f0f565b6100c260005481565b6100c261017b366004612f4d565b6123b2565b6100c261018e366004613042565b612787565b6101a66101a1366004612da2565b612ab1565b6040516100cc959493929190613114565b6100c260015481565b6100c260045481565b600480549060006101d983613178565b9091555050805182518451859285928592600092916101f791613191565b6102019190613191565b67ffffffffffffffff81111561021957610219612c77565b6040519080825280601f01601f191660200182016040528015610243576020820181803683370190505b509050806000805b86518110156102bb57868181518110610266576102666131aa565b01602001516001600160f81b031916838361028081613178565b945081518110610292576102926131aa565b60200101906001600160f81b031916908160001a905350806102b381613178565b91505061024b565b5060005b855181101561032f578581815181106102da576102da6131aa565b01602001516001600160f81b03191683836102f481613178565b945081518110610306576103066131aa565b60200101906001600160f81b031916908160001a9053508061032781613178565b9150506102bf565b5060005b84518110156103a35784818151811061034e5761034e6131aa565b01602001516001600160f81b031916838361036881613178565b94508151811061037a5761037a6131aa565b60200101906001600160f81b031916908160001a9053508061039b81613178565b915050610333565b5081516020808401919091206004546000908152600590925260409091206103cb8b82613249565b5060045460009081526005602052604090206001016103ea8a82613249565b5060045460009081526005602052604090206002016104098982613249565b5060048054600081815260056020526040902060038101919091550155505050505050505050565b6006805490600061044183613178565b909155506000905060015b6000548111610880576000818152600260205260408120805461046e906131c0565b80601f016020809104026020016040519081016040528092919081815260200182805461049a906131c0565b80156104e75780601f106104bc576101008083540402835291602001916104e7565b820191906000526020600020905b8154815290600101906020018083116104ca57829003601f168201915b505050505090506000600260008481526020019081526020016000206001018054610511906131c0565b80601f016020809104026020016040519081016040528092919081815260200182805461053d906131c0565b801561058a5780601f1061055f5761010080835404028352916020019161058a565b820191906000526020600020905b81548152906001019060200180831161056d57829003601f168201915b5050505050905060006002600085815260200190815260200160002060020180546105b4906131c0565b80601f01602080910402602001604051908101604052809291908181526020018280546105e0906131c0565b801561062d5780601f106106025761010080835404028352916020019161062d565b820191906000526020600020905b81548152906001019060200180831161061057829003601f168201915b505050505090506000600260008681526020019081526020016000206003018054610657906131c0565b80601f0160208091040260200160405190810160405280929190818152602001828054610683906131c0565b80156106d05780601f106106a5576101008083540402835291602001916106d0565b820191906000526020600020905b8154815290600101906020018083116106b357829003601f168201915b5050505050905060006002600087815260200190815260200160002060060180546106fa906131c0565b80601f0160208091040260200160405190810160405280929190818152602001828054610726906131c0565b80156107735780601f1061074857610100808354040283529160200191610773565b820191906000526020600020905b81548152906001019060200180831161075657829003601f168201915b50505050509050600060026000888152602001908152602001600020600701805461079d906131c0565b80601f01602080910402602001604051908101604052809291908181526020018280546107c9906131c0565b80156108165780601f106107eb57610100808354040283529160200191610816565b820191906000526020600020905b8154815290600101906020018083116107f957829003601f168201915b50505050509050805182518451865188518a516108339190613191565b61083d9190613191565b6108479190613191565b6108519190613191565b61085b9190613191565b6108659089613191565b9750505050505050808061087890613178565b91505061044c565b5060015b6001548111610c0857600081815260036020526040812080546108a6906131c0565b80601f01602080910402602001604051908101604052809291908181526020018280546108d2906131c0565b801561091f5780601f106108f45761010080835404028352916020019161091f565b820191906000526020600020905b81548152906001019060200180831161090257829003601f168201915b505050505090506000600360008481526020019081526020016000206001018054610949906131c0565b80601f0160208091040260200160405190810160405280929190818152602001828054610975906131c0565b80156109c25780601f10610997576101008083540402835291602001916109c2565b820191906000526020600020905b8154815290600101906020018083116109a557829003601f168201915b5050505050905060006003600085815260200190815260200160002060020180546109ec906131c0565b80601f0160208091040260200160405190810160405280929190818152602001828054610a18906131c0565b8015610a655780601f10610a3a57610100808354040283529160200191610a65565b820191906000526020600020905b815481529060010190602001808311610a4857829003601f168201915b505050505090506000600360008681526020019081526020016000206005018054610a8f906131c0565b80601f0160208091040260200160405190810160405280929190818152602001828054610abb906131c0565b8015610b085780601f10610add57610100808354040283529160200191610b08565b820191906000526020600020905b815481529060010190602001808311610aeb57829003601f168201915b505050505090506000600360008781526020019081526020016000206006018054610b32906131c0565b80601f0160208091040260200160405190810160405280929190818152602001828054610b5e906131c0565b8015610bab5780601f10610b8057610100808354040283529160200191610bab565b820191906000526020600020905b815481529060010190602001808311610b8e57829003601f168201915b5050505050905080518251845186518851610bc69190613191565b610bd09190613191565b610bda9190613191565b610be49190613191565b610bee9088613191565b965050505050508080610c0090613178565b915050610884565b5060008167ffffffffffffffff811115610c2457610c24612c77565b6040519080825280601f01601f191660200182016040528015610c4e576020820181803683370190505b509050600081818060015b60005481116112d85760008181526002602052604081208054610c7b906131c0565b80601f0160208091040260200160405190810160405280929190818152602001828054610ca7906131c0565b8015610cf45780601f10610cc957610100808354040283529160200191610cf4565b820191906000526020600020905b815481529060010190602001808311610cd757829003601f168201915b5050505050905060005b8151811015610d6e57818181518110610d1957610d196131aa565b01602001516001600160f81b0319168685610d3381613178565b965081518110610d4557610d456131aa565b60200101906001600160f81b031916908160001a90535080610d6681613178565b915050610cfe565b5060008281526002602052604081206001018054610d8b906131c0565b80601f0160208091040260200160405190810160405280929190818152602001828054610db7906131c0565b8015610e045780601f10610dd957610100808354040283529160200191610e04565b820191906000526020600020905b815481529060010190602001808311610de757829003601f168201915b5050505050905060005b8151811015610e7e57818181518110610e2957610e296131aa565b01602001516001600160f81b0319168786610e4381613178565b975081518110610e5557610e556131aa565b60200101906001600160f81b031916908160001a90535080610e7681613178565b915050610e0e565b5060008381526002602081905260408220018054610e9b906131c0565b80601f0160208091040260200160405190810160405280929190818152602001828054610ec7906131c0565b8015610f145780601f10610ee957610100808354040283529160200191610f14565b820191906000526020600020905b815481529060010190602001808311610ef757829003601f168201915b5050505050905060005b8151811015610f8e57818181518110610f3957610f396131aa565b01602001516001600160f81b0319168887610f5381613178565b985081518110610f6557610f656131aa565b60200101906001600160f81b031916908160001a90535080610f8681613178565b915050610f1e565b5060008481526002602052604081206003018054610fab906131c0565b80601f0160208091040260200160405190810160405280929190818152602001828054610fd7906131c0565b80156110245780601f10610ff957610100808354040283529160200191611024565b820191906000526020600020905b81548152906001019060200180831161100757829003601f168201915b5050505050905060005b815181101561109e57818181518110611049576110496131aa565b01602001516001600160f81b031916898861106381613178565b995081518110611075576110756131aa565b60200101906001600160f81b031916908160001a9053508061109681613178565b91505061102e565b50600085815260026020526040812060060180546110bb906131c0565b80601f01602080910402602001604051908101604052809291908181526020018280546110e7906131c0565b80156111345780601f1061110957610100808354040283529160200191611134565b820191906000526020600020905b81548152906001019060200180831161111757829003601f168201915b5050505050905060005b81518110156111ae57818181518110611159576111596131aa565b01602001516001600160f81b0319168a8961117381613178565b9a5081518110611185576111856131aa565b60200101906001600160f81b031916908160001a905350806111a681613178565b91505061113e565b50600086815260026020526040812060070180546111cb906131c0565b80601f01602080910402602001604051908101604052809291908181526020018280546111f7906131c0565b80156112445780601f1061121957610100808354040283529160200191611244565b820191906000526020600020905b81548152906001019060200180831161122757829003601f168201915b5050505050905060005b81518110156112be57818181518110611269576112696131aa565b01602001516001600160f81b0319168b8a61128381613178565b9b5081518110611295576112956131aa565b60200101906001600160f81b031916908160001a905350806112b681613178565b91505061124e565b5050505050505080806112d090613178565b915050610c59565b5060015b600154811161184a57600081815260036020526040812080546112fe906131c0565b80601f016020809104026020016040519081016040528092919081815260200182805461132a906131c0565b80156113775780601f1061134c57610100808354040283529160200191611377565b820191906000526020600020905b81548152906001019060200180831161135a57829003601f168201915b5050505050905060005b81518110156113f15781818151811061139c5761139c6131aa565b01602001516001600160f81b03191686856113b681613178565b9650815181106113c8576113c86131aa565b60200101906001600160f81b031916908160001a905350806113e981613178565b915050611381565b506000828152600360205260408120600101805461140e906131c0565b80601f016020809104026020016040519081016040528092919081815260200182805461143a906131c0565b80156114875780601f1061145c57610100808354040283529160200191611487565b820191906000526020600020905b81548152906001019060200180831161146a57829003601f168201915b5050505050905060005b8151811015611501578181815181106114ac576114ac6131aa565b01602001516001600160f81b03191687866114c681613178565b9750815181106114d8576114d86131aa565b60200101906001600160f81b031916908160001a905350806114f981613178565b915050611491565b506000838152600360205260408120600201805461151e906131c0565b80601f016020809104026020016040519081016040528092919081815260200182805461154a906131c0565b80156115975780601f1061156c57610100808354040283529160200191611597565b820191906000526020600020905b81548152906001019060200180831161157a57829003601f168201915b5050505050905060005b8151811015611611578181815181106115bc576115bc6131aa565b01602001516001600160f81b03191688876115d681613178565b9850815181106115e8576115e86131aa565b60200101906001600160f81b031916908160001a9053508061160981613178565b9150506115a1565b506000848152600360205260408120600501805461162e906131c0565b80601f016020809104026020016040519081016040528092919081815260200182805461165a906131c0565b80156116a75780601f1061167c576101008083540402835291602001916116a7565b820191906000526020600020905b81548152906001019060200180831161168a57829003601f168201915b5050505050905060005b8151811015611721578181815181106116cc576116cc6131aa565b01602001516001600160f81b03191689886116e681613178565b9950815181106116f8576116f86131aa565b60200101906001600160f81b031916908160001a9053508061171981613178565b9150506116b1565b506000858152600360205260408120600601805461173e906131c0565b80601f016020809104026020016040519081016040528092919081815260200182805461176a906131c0565b80156117b75780601f1061178c576101008083540402835291602001916117b7565b820191906000526020600020905b81548152906001019060200180831161179a57829003601f168201915b5050505050905060005b8151811015611831578181815181106117dc576117dc6131aa565b01602001516001600160f81b0319168a896117f681613178565b9a5081518110611808576118086131aa565b60200101906001600160f81b031916908160001a9053508061182981613178565b9150506117c1565b505050505050808061184290613178565b9150506112dc565b50600060608060015b60045481116119225760045481036118a757600081815260056020908152604091829020600401548251918201520160405160208183030381529060405292508251846118a09190613191565b9350611910565b60006118b4826001613191565b600083815260056020908152604080832060049081015485855293829020015490519394506118ee93909101918252602082015260400190565b604051602081830303815290604052925082518561190c9190613191565b9450505b8061191a81613178565b915050611853565b5060008367ffffffffffffffff81111561193e5761193e612c77565b6040519080825280601f01601f191660200182016040528015611968576020820181803683370190505b50905080600060015b6004548111611b17576004548103611a2a576000818152600560209081526040918290206004015482519182015201604051602081830303815290604052955060005b8651811015611a24578681815181106119cf576119cf6131aa565b01602001516001600160f81b03191684846119e981613178565b9550815181106119fb576119fb6131aa565b60200101906001600160f81b031916908160001a90535080611a1c81613178565b9150506119b4565b50611b05565b6000611a37826001613191565b60008381526005602090815260408083206004908101548585529382902001549051939450611a7193909101918252602082015260400190565b604051602081830303815290604052955060005b8651811015611af557868181518110611aa057611aa06131aa565b01602001516001600160f81b0319168585611aba81613178565b965081518110611acc57611acc6131aa565b60200101906001600160f81b031916908160001a90535080611aed81613178565b915050611a85565b5081611b0081613178565b925050505b80611b0f81613178565b915050611971565b5081516020830120895160009067ffffffffffffffff811115611b3c57611b3c612c77565b6040519080825280601f01601f191660200182016040528015611b66576020820181803683370190505b509050806000805b8d51811015611bde578d8181518110611b8957611b896131aa565b01602001516001600160f81b0319168383611ba381613178565b945081518110611bb557611bb56131aa565b60200101906001600160f81b031916908160001a90535080611bd681613178565b915050611b6e565b50815160208084019190912060065460008181526007909352604090922060038101929092559c50600101611c138e82613249565b508b60076000600654815260200190815260200160002060040181905550600854600760006006548152602001908152602001600020600501819055508d6007600060065481526020019081526020016000206000018190555083600760006006548152602001908152602001600020600201819055508b60088190555050505050505050505050505050505050565b600260205260009081526040902080548190611cbe906131c0565b80601f0160208091040260200160405190810160405280929190818152602001828054611cea906131c0565b8015611d375780601f10611d0c57610100808354040283529160200191611d37565b820191906000526020600020905b815481529060010190602001808311611d1a57829003601f168201915b505050505090806001018054611d4c906131c0565b80601f0160208091040260200160405190810160405280929190818152602001828054611d78906131c0565b8015611dc55780601f10611d9a57610100808354040283529160200191611dc5565b820191906000526020600020905b815481529060010190602001808311611da857829003601f168201915b505050505090806002018054611dda906131c0565b80601f0160208091040260200160405190810160405280929190818152602001828054611e06906131c0565b8015611e535780601f10611e2857610100808354040283529160200191611e53565b820191906000526020600020905b815481529060010190602001808311611e3657829003601f168201915b505050505090806003018054611e68906131c0565b80601f0160208091040260200160405190810160405280929190818152602001828054611e94906131c0565b8015611ee15780601f10611eb657610100808354040283529160200191611ee1565b820191906000526020600020905b815481529060010190602001808311611ec457829003601f168201915b505050505090806004015490806005015490806006018054611f02906131c0565b80601f0160208091040260200160405190810160405280929190818152602001828054611f2e906131c0565b8015611f7b5780601f10611f5057610100808354040283529160200191611f7b565b820191906000526020600020905b815481529060010190602001808311611f5e57829003601f168201915b505050505090806007018054611f90906131c0565b80601f0160208091040260200160405190810160405280929190818152602001828054611fbc906131c0565b80156120095780601f10611fde57610100808354040283529160200191612009565b820191906000526020600020905b815481529060010190602001808311611fec57829003601f168201915b5050505050905088565b60036020526000908152604090208054819061202e906131c0565b80601f016020809104026020016040519081016040528092919081815260200182805461205a906131c0565b80156120a75780601f1061207c576101008083540402835291602001916120a7565b820191906000526020600020905b81548152906001019060200180831161208a57829003601f168201915b5050505050908060010180546120bc906131c0565b80601f01602080910402602001604051908101604052809291908181526020018280546120e8906131c0565b80156121355780601f1061210a57610100808354040283529160200191612135565b820191906000526020600020905b81548152906001019060200180831161211857829003601f168201915b50505050509080600201805461214a906131c0565b80601f0160208091040260200160405190810160405280929190818152602001828054612176906131c0565b80156121c35780601f10612198576101008083540402835291602001916121c3565b820191906000526020600020905b8154815290600101906020018083116121a657829003601f168201915b5050505050908060030154908060040154908060050180546121e4906131c0565b80601f0160208091040260200160405190810160405280929190818152602001828054612210906131c0565b801561225d5780601f106122325761010080835404028352916020019161225d565b820191906000526020600020905b81548152906001019060200180831161224057829003601f168201915b505050505090806006018054612272906131c0565b80601f016020809104026020016040519081016040528092919081815260200182805461229e906131c0565b80156122eb5780601f106122c0576101008083540402835291602001916122eb565b820191906000526020600020905b8154815290600101906020018083116122ce57829003601f168201915b5050505050905087565b60076020526000908152604090208054600182018054919291612317906131c0565b80601f0160208091040260200160405190810160405280929190818152602001828054612343906131c0565b80156123905780601f1061236557610100808354040283529160200191612390565b820191906000526020600020905b81548152906001019060200180831161237357829003601f168201915b5050505050908060020154908060030154908060040154908060050154905086565b6000805481806123c183613178565b909155505082518451865188518a518b948b948b948b948b946000949392916123e991613191565b6123f39190613191565b6123fd9190613191565b6124079190613191565b67ffffffffffffffff81111561241f5761241f612c77565b6040519080825280601f01601f191660200182016040528015612449576020820181803683370190505b509050806000805b88518110156124c05788818151811061246c5761246c6131aa565b602001015160f81c60f81b838381518110612489576124896131aa565b60200101906001600160f81b031916908160001a905350816124aa81613178565b92505080806124b890613178565b915050612451565b5060005b8751811015612533578781815181106124df576124df6131aa565b602001015160f81c60f81b8383815181106124fc576124fc6131aa565b60200101906001600160f81b031916908160001a9053508161251d81613178565b925050808061252b90613178565b9150506124c4565b5060005b86518110156125a657868181518110612552576125526131aa565b602001015160f81c60f81b83838151811061256f5761256f6131aa565b60200101906001600160f81b031916908160001a9053508161259081613178565b925050808061259e90613178565b915050612537565b5060005b8551811015612619578581815181106125c5576125c56131aa565b602001015160f81c60f81b8383815181106125e2576125e26131aa565b60200101906001600160f81b031916908160001a9053508161260381613178565b925050808061261190613178565b9150506125aa565b5060005b845181101561268c57848181518110612638576126386131aa565b602001015160f81c60f81b838381518110612655576126556131aa565b60200101906001600160f81b031916908160001a9053508161267681613178565b925050808061268490613178565b91505061261d565b506000828051906020012090508f600260008054815260200190815260200160002060000190816126bd9190613249565b508e600260008054815260200190815260200160002060010190816126e29190613249565b50600080548152600260208190526040909120016127008f82613249565b5060008054815260026020526040902060030161271d8e82613249565b506000805480825260026020526040808320600481019290925560059091018390558154825290206006016127528d82613249565b5060008054815260026020526040902060070161276f8c82613249565b50506000549f9e505050505050505050505050505050565b600180546000918261279883613178565b90915550508251845186518851899389938993899360009392916127bb91613191565b6127c59190613191565b6127cf9190613191565b67ffffffffffffffff8111156127e7576127e7612c77565b6040519080825280601f01601f191660200182016040528015612811576020820181803683370190505b509050806000805b875181101561288857878181518110612834576128346131aa565b602001015160f81c60f81b838381518110612851576128516131aa565b60200101906001600160f81b031916908160001a9053508161287281613178565b925050808061288090613178565b915050612819565b5060005b86518110156128fb578681815181106128a7576128a76131aa565b602001015160f81c60f81b8383815181106128c4576128c46131aa565b60200101906001600160f81b031916908160001a905350816128e581613178565b92505080806128f390613178565b91505061288c565b5060005b855181101561296e5785818151811061291a5761291a6131aa565b602001015160f81c60f81b838381518110612937576129376131aa565b60200101906001600160f81b031916908160001a9053508161295881613178565b925050808061296690613178565b9150506128ff565b5060005b84518110156129e15784818151811061298d5761298d6131aa565b602001015160f81c60f81b8383815181106129aa576129aa6131aa565b60200101906001600160f81b031916908160001a905350816129cb81613178565b92505080806129d990613178565b915050612972565b508151602080840191909120600154600090815260039092526040909120612a098f82613249565b5060018054600090815260036020526040902001612a278e82613249565b506001546000908152600360205260409020600201612a468d82613249565b5060018054600081815260036020819052604080832091820193909355600401849055915482529020600501612a7c8c82613249565b506001546000908152600360205260409020600601612a9b8b82613249565b50506001549d9c50505050505050505050505050565b600560205260009081526040902080548190612acc906131c0565b80601f0160208091040260200160405190810160405280929190818152602001828054612af8906131c0565b8015612b455780601f10612b1a57610100808354040283529160200191612b45565b820191906000526020600020905b815481529060010190602001808311612b2857829003601f168201915b505050505090806001018054612b5a906131c0565b80601f0160208091040260200160405190810160405280929190818152602001828054612b86906131c0565b8015612bd35780601f10612ba857610100808354040283529160200191612bd3565b820191906000526020600020905b815481529060010190602001808311612bb657829003601f168201915b505050505090806002018054612be8906131c0565b80601f0160208091040260200160405190810160405280929190818152602001828054612c14906131c0565b8015612c615780601f10612c3657610100808354040283529160200191612c61565b820191906000526020600020905b815481529060010190602001808311612c4457829003601f168201915b5050505050908060030154908060040154905085565b634e487b7160e01b600052604160045260246000fd5b600082601f830112612c9e57600080fd5b813567ffffffffffffffff80821115612cb957612cb9612c77565b604051601f8301601f19908116603f01168101908282118183101715612ce157612ce1612c77565b81604052838152866020858801011115612cfa57600080fd5b836020870160208301376000602085830101528094505050505092915050565b600080600060608486031215612d2f57600080fd5b833567ffffffffffffffff80821115612d4757600080fd5b612d5387838801612c8d565b94506020860135915080821115612d6957600080fd5b612d7587838801612c8d565b93506040860135915080821115612d8b57600080fd5b50612d9886828701612c8d565b9150509250925092565b600060208284031215612db457600080fd5b5035919050565b6000815180845260005b81811015612de157602081850181015186830182015201612dc5565b506000602082860101526020601f19601f83011685010191505092915050565b6000610100808352612e158184018c612dbb565b90508281036020840152612e29818b612dbb565b90508281036040840152612e3d818a612dbb565b90508281036060840152612e518189612dbb565b90508660808401528560a084015282810360c0840152612e718186612dbb565b905082810360e0840152612e858185612dbb565b9b9a5050505050505050505050565b60e081526000612ea760e083018a612dbb565b8281036020840152612eb9818a612dbb565b90508281036040840152612ecd8189612dbb565b905086606084015285608084015282810360a0840152612eed8186612dbb565b905082810360c0840152612f018185612dbb565b9a9950505050505050505050565b86815260c060208201526000612f2860c0830188612dbb565b90508560408301528460608301528360808301528260a0830152979650505050505050565b60008060008060008060c08789031215612f6657600080fd5b863567ffffffffffffffff80821115612f7e57600080fd5b612f8a8a838b01612c8d565b97506020890135915080821115612fa057600080fd5b612fac8a838b01612c8d565b96506040890135915080821115612fc257600080fd5b612fce8a838b01612c8d565b95506060890135915080821115612fe457600080fd5b612ff08a838b01612c8d565b9450608089013591508082111561300657600080fd5b6130128a838b01612c8d565b935060a089013591508082111561302857600080fd5b5061303589828a01612c8d565b9150509295509295509295565b600080600080600060a0868803121561305a57600080fd5b853567ffffffffffffffff8082111561307257600080fd5b61307e89838a01612c8d565b9650602088013591508082111561309457600080fd5b6130a089838a01612c8d565b955060408801359150808211156130b657600080fd5b6130c289838a01612c8d565b945060608801359150808211156130d857600080fd5b6130e489838a01612c8d565b935060808801359150808211156130fa57600080fd5b5061310788828901612c8d565b9150509295509295909350565b60a08152600061312760a0830188612dbb565b82810360208401526131398188612dbb565b9050828103604084015261314d8187612dbb565b60608401959095525050608001529392505050565b634e487b7160e01b600052601160045260246000fd5b60006001820161318a5761318a613162565b5060010190565b808201808211156131a4576131a4613162565b92915050565b634e487b7160e01b600052603260045260246000fd5b600181811c908216806131d457607f821691505b6020821081036131f457634e487b7160e01b600052602260045260246000fd5b50919050565b601f82111561324457600081815260208120601f850160051c810160208610156132215750805b601f850160051c820191505b818110156132405782815560010161322d565b5050505b505050565b815167ffffffffffffffff81111561326357613263612c77565b6132778161327184546131c0565b846131fa565b602080601f8311600181146132ac57600084156132945750858301515b600019600386901b1c1916600185901b178555613240565b600085815260208120601f198616915b828110156132db578886015182559484019460019091019084016132bc565b50858210156132f95787850151600019600388901b60f8161c191681555b5050505050600190811b0190555056fea26469706673582212207806095fea1b47f1681566d3c15920e590bd4fe26062323c40d85a5c82d227a664736f6c6343000813003330783945344665373762624133336239613835393765363546383841433430443835623435443244354577656c636f6d6520746f20616e616e64277320636861726974792c207468697320697320612064656661756c742063686172697479206173204920637265617465642074686973207765622070616765307830383633623436653531623935384539654666333636436344633145386631653530393135633835307843413335623764393135343538454635343061446536303638644665324634344538666137333363",
  "immutableReferences": {},
  "source": "pragma solidity ^0.8.0;\ncontract charity {\n\n  uint public charity_count = 0;\n\n\n  uint public org_count = 0;\n\n  struct charity_structre {\n    string name;\n    string description;\n    string bankAccount;\n    string bankName;\n    uint id;\n    bytes32 hash;\n    string address_of_charity;\n    string  ether_coins;\n\n\n  }\n\n  struct personOrOrganisation_structure {\n\n    string name;\n    string bankAccount;\n    string bankName;\n    uint id;\n    bytes32 hash;\n    string address_of_organisation;\n    string ether_coins;\n\n\n\n  }\n\n  constructor() {\n\n      createCharity(\"anand_charity\", \"welcome to anand's charity, this is a default charity as I created this web page\",\"bankacc\",\"bankname\",\"0xCA35b7d915458EF540aDe6068dFe2F44E8fa733c\",\"0000\");\n\n      createOrganisation(\"anand_organisation\",\"bank account\",\"bank name\",\"0xCA35b7d915458EF540aDe6068dFe2F44E8fa733c\",\"0000\");\n\n      createTransaction(\"0x9E4Fe77bbA33b9a8597e65F88AC40D85b45D2D5E\",\"0x0863b46e51b958E9eFf366CcDc1E8f1e50915c85\",\"1\");\n\n      blockchain_function();\n  }\n\n  mapping(uint => charity_structre) public charitys;\n\n\n  mapping(uint => personOrOrganisation_structure) public org;\n\n  struct transactions {\n\n    string address_of_charity;\n    string address_of_organisation;\n    string amount_sent;\n    uint id;\n    bytes32 transaction_hash;\n\n  }\n\n  uint public transaction_count = 0;\n\n  mapping(uint => transactions) public transaction_dict;\n\n\n  uint public blockchain_count = 0;\n\n  struct blockchain_structure {\n\n      uint nonce;\n      bytes data;\n      bytes32 transaction_hash_add;\n      uint blockNumber;\n      bytes32 hash;\n      bytes32 previous_hash;\n  }\n\n  mapping(uint => blockchain_structure) public Blockchain;\n\n  bytes32 previousHash;\n\n  function createCharity(string memory _name, string memory _description, string memory _bankacc, string memory _bankname, string memory _address, string memory _ether_coins) public returns(uint){\n\n      charity_count++;\n      bytes memory name_byte = bytes(_name);\n      bytes memory description_byte = bytes(_description);\n      bytes memory bankacc_byte = bytes(_bankacc);\n      bytes memory bankname_byte = bytes(_bankname);\n      bytes memory address_byte = bytes(_address);\n      string memory lengthabc = new string(name_byte.length + description_byte.length + bankacc_byte.length + bankname_byte.length + address_byte.length);\n      bytes memory hash = bytes(lengthabc);\n      uint k = 0;\n      for(uint i =0;i < name_byte.length; i++){\n          hash[k] = name_byte[i];\n          k++;\n      }\n      for(uint i = 0;i < description_byte.length;i++){\n          hash[k] = description_byte[i];\n          k++;\n      }\n      for(uint i = 0;i < bankacc_byte.length;i++){\n          hash[k] = bankacc_byte[i];\n          k++;\n      }\n      for(uint i = 0;i < bankname_byte.length;i++){\n          hash[k] = bankname_byte[i];\n          k++;\n      }\n\n      for(uint i = 0;i < address_byte.length; i++ ){\n\n          hash[k] = address_byte[i];\n          k++;\n      }\n\n\n      bytes32 hash_address = keccak256(hash);\n      charitys[charity_count].name = _name;\n      charitys[charity_count].description = _description;\n      charitys[charity_count].bankAccount = _bankacc;\n      charitys[charity_count].bankName = _bankname;\n      charitys[charity_count].id = charity_count;\n      charitys[charity_count].hash = hash_address;\n      charitys[charity_count].address_of_charity = _address;\n      charitys[charity_count].ether_coins = _ether_coins;\n      //emit charityCreated(_name,_description,_bankacc,_bankname,charity_count,hash_address,_address);\n\n      return(charity_count);\n\n\n  }\n\n\n  function createOrganisation(string memory _name, string memory _bankacc, string memory _bankname, string memory _address, string memory _ether_coins) public returns(uint){\n\n    org_count ++;\n\n    bytes memory name_byte = bytes(_name);\n    bytes memory acc_byte = bytes(_bankacc);\n    bytes memory bankname_byte = bytes(_bankname);\n    bytes memory address_byte = bytes(_address);\n    string memory lengthabc = new string(name_byte.length + acc_byte.length + bankname_byte.length + address_byte.length );\n    bytes memory hash = bytes(lengthabc);\n\n    uint k = 0;\n\n    for(uint i = 0; i < name_byte.length;i++) {\n\n      hash[k] = name_byte[i];\n      k++;\n    }\n\n    for(uint i = 0; i < acc_byte.length; i++){\n\n      hash[k] = acc_byte[i];\n      k++;\n\n    }\n\n\n    for(uint i = 0; i < bankname_byte.length; i++) {\n\n      hash[k] = bankname_byte[i];\n      k++;\n    }\n\n\n    for(uint i = 0;i < address_byte.length; i++) {\n\n      hash[k] = address_byte[i];\n      k++;\n\n    }\n    bytes32 hash_address = keccak256(hash);\n\n    org[org_count].name = _name;\n    org[org_count].bankAccount = _bankacc;\n    org[org_count].bankName = _bankname;\n    org[org_count].id = org_count;\n    org[org_count].hash = hash_address;\n    org[org_count].address_of_organisation = _address;\n    org[org_count].ether_coins = _ether_coins;\n    return org_count;\n\n\n  }\n\nfunction createTransaction(string memory add_of_charity,string memory add_of_org,string memory amount) public {\n\n    transaction_count++;\n\n\n\n    bytes memory _address_of_charity = bytes(add_of_charity);\n    bytes memory _address_of_organisation = bytes(add_of_org);\n    bytes memory _amount = bytes(amount);\n\n    string memory length_abc = new string(_address_of_charity.length + _address_of_organisation.length + _amount.length);\n    bytes memory hash = bytes(length_abc);\n\n    uint k = 0;\n    for(uint i = 0; i < _address_of_charity.length; i++) {\n\n      hash[k++] = _address_of_charity[i];\n\n    }\n\n    for(uint i = 0; i < _address_of_organisation.length; i++) {\n\n      hash[k++] = _address_of_organisation[i];\n\n    }\n\n    for(uint i = 0; i < _amount.length; i++) {\n\n      hash[k++] = _amount[i];\n\n    }\n\n    bytes32 hash_address = keccak256(hash);\n    transaction_dict[transaction_count].address_of_charity = add_of_charity;\n    transaction_dict[transaction_count].address_of_organisation = add_of_org;\n    transaction_dict[transaction_count].amount_sent = amount;\n    transaction_dict[transaction_count].id = transaction_count;\n    transaction_dict[transaction_count].transaction_hash = hash_address;\n\n\n\n}\n/*\nfunction substring(string str, uint startIndex, uint endIndex) public returns (string) {\n    bytes memory strBytes = bytes(str);\n    bytes memory result = new bytes(endIndex-startIndex);\n    for(uint i = startIndex; i < endIndex; i++) {\n        result[i-startIndex] = strBytes[i];\n    }\n    return string(result);\n}\n*/\nfunction blockchain_function() public {\n\n\n\n    blockchain_count++;\n    uint len = 0;\n    for(uint i = 1;i<=charity_count;i++){\n        bytes memory name_charity = bytes(charitys[i].name);\n        bytes memory description = bytes(charitys[i].description);\n        bytes memory bankacc = bytes(charitys[i].bankAccount);\n        bytes memory bankname = bytes(charitys[i].bankName);\n        bytes memory add_of_charity_byte = bytes(charitys[i].address_of_charity);\n        bytes memory amount_byte = bytes(charitys[i].ether_coins);\n        len += name_charity.length + description.length + bankacc.length + bankname.length + add_of_charity_byte.length + amount_byte.length;\n    }\n    for(uint i =1;i<=org_count;i++){\n        bytes memory name_org = bytes(org[i].name);\n        bytes memory bankacc_org = bytes(org[i].bankAccount);\n        bytes memory bankname_org = bytes(org[i].bankName);\n        bytes memory address_of_organisation_byte = bytes(org[i].address_of_organisation);\n        bytes memory ether_coins_byte = bytes(org[i].ether_coins);\n        len += name_org.length + bankacc_org.length + bankname_org.length + address_of_organisation_byte.length + ether_coins_byte.length;\n    }\n    string memory lengthabcd = new string(len);\n\n    uint nonceValue = 0;\n    bytes memory dataString = bytes(lengthabcd) ;\n    bytes32 hash_addressNew;\n\n    uint j = 0;\n\n    for(uint i = 1;i <= charity_count; i++){\n      bytes memory name_charity = bytes(charitys[i].name);\n      for(uint m=0;m<name_charity.length;m++){\n        dataString[j++] = name_charity[m];\n      }\n\n      bytes memory description = bytes(charitys[i].description);\n      for(uint m=0;m<description.length;m++){\n        dataString[j++] = description[m];\n      }\n\n      bytes memory bankacc = bytes(charitys[i].bankAccount);\n      for(uint m=0;m<bankacc.length;m++){\n        dataString[j++] = bankacc[m];\n      }\n\n      bytes memory bankname = bytes(charitys[i].bankName);\n      for(uint m=0;m<bankname.length;m++){\n        dataString[j++] = bankname[m];\n      }\n\n      bytes memory add_of_charity_byte = bytes(charitys[i].address_of_charity);\n      for(uint m=0;m<add_of_charity_byte.length;m++){\n        dataString[j++] = add_of_charity_byte[m];\n      }\n\n\n      bytes memory amount_byte = bytes(charitys[i].ether_coins);\n      for(uint m=0;m<amount_byte.length;m++){\n        dataString[j++] = amount_byte[m];\n      }\n      }\n\n    for(uint i = 1;i <= org_count; i++){\n\n\n      bytes memory name_org = bytes(org[i].name);\n      for(uint m=0;m<name_org.length;m++){\n        dataString[j++] = name_org[m];\n      }\n\n      bytes memory bankacc_org = bytes(org[i].bankAccount);\n      for(uint m=0;m<bankacc_org.length;m++){\n        dataString[j++] = bankacc_org[m];\n      }\n\n      bytes memory bankname_org = bytes(org[i].bankName);\n      for(uint m=0;m<bankname_org.length;m++){\n        dataString[j++] = bankname_org[m];\n      }\n\n      bytes memory address_of_organisation_byte = bytes(org[i].address_of_organisation);\n      for(uint m=0;m<address_of_organisation_byte.length;m++){\n        dataString[j++] = address_of_organisation_byte[m];\n      }\n\n      bytes memory ether_coins_byte = bytes(org[i].ether_coins);\n      for(uint m=0;m<ether_coins_byte.length;m++){\n        dataString[j++] = ether_coins_byte[m];\n      }\n\n    }\nuint another_len = 0;\nbytes memory temp;\nbytes memory temp2;\n    for(uint i = 1;i<=transaction_count;i++){\n      if(i==transaction_count){\n          temp = abi.encode(transaction_dict[i].transaction_hash);\n          another_len += temp.length;\n      }\n      else {\n          uint z = i+1;\n          temp2 = abi.encode(transaction_dict[i].transaction_hash,transaction_dict[z].transaction_hash);\n          another_len += temp2.length;\n      }\n    }\n\n    string memory something = new string(another_len);\n\n    bytes memory hash_total = bytes(something);\n    uint l = 0;\n    for(uint i = 1; i<=transaction_count;i++) {\n\n       if(i==transaction_count){\n          temp = abi.encode(transaction_dict[i].transaction_hash);\n          for(uint m=0;m<temp.length;m++){\n            hash_total[l++] = temp[m];\n          }\n       }\n       else {\n       uint g = i+1;\n        temp2 = abi.encode(transaction_dict[i].transaction_hash,transaction_dict[g].transaction_hash);\n        for(uint m=0;m<temp2.length;m++){\n          hash_total[l++] = temp2[m];\n        }\n        i++;\n       }\n\n    }\n\n\n    bytes32 transaction_hash_address = keccak256(hash_total);\n\n//for hash calculation....\n\n  string memory lengthabc = new string(dataString.length);\n  bytes memory hashNew = bytes(lengthabc);\n  uint k =0;\n  for(uint i = 0;i<dataString.length;i++){\n    hashNew[k++] = dataString[i];\n  }\n  hash_addressNew = keccak256(hashNew);\n\n\n    Blockchain[blockchain_count].blockNumber = blockchain_count;\n    Blockchain[blockchain_count].data = dataString;\n    Blockchain[blockchain_count].hash = hash_addressNew;\n    Blockchain[blockchain_count].previous_hash = previousHash;\n    Blockchain[blockchain_count].nonce = nonceValue;\n    Blockchain[blockchain_count].transaction_hash_add = transaction_hash_address;\n    previousHash = hash_addressNew;\n    }\n\n}\n",
  "sourcePath": "/Users/liqingchao/workspace/blockchain/charity_copy/CharityBlockchain/contracts/charity.sol",
  "compiler": {
    "name": "solc",
    "version": "0.8.19+commit.7dd6d404.Emscripten.clang"
  },
  "schemaVersion": "3.4.16",
  "updatedAt": "2026-06-19T10:52:32.157Z",
  "networkType": "ethereum",
  "devdoc": {
    "kind": "dev",
    "methods": {},
    "version": 1
  },
  "userdoc": {
    "kind": "user",
    "methods": {},
    "version": 1
  }
}